{
  "abi": [
    {
      "inputs": [
        {
          "internalType": "contract IEntryPoint",
          "name": "anEntryPoint",
          "type": "address"
        }
      ],
      "stateMutability": "nonpayable",
      "type": "constructor"
    },
    {
      "anonymous": false,
      "inputs": [
        {
          "indexed": false,
          "internalType": "address",
          "name": "previousAdmin",
          "type": "address"
        },
        {
          "indexed": false,
          "internalType": "address",
          "name": "newAdmin",
          "type": "address"
        }
      ],
      "name": "AdminChanged",
      "type": "event"
    },
    {
      "anonymous": false,
      "inputs": [
        {
          "indexed": true,
          "internalType": "address",
          "name": "beacon",
          "type": "address"
        }
      ],
      "name": "BeaconUpgraded",
      "type": "event"
    },
    {
      "anonymous": false,
      "inputs": [
        {
          "indexed": false,
          "internalType": "uint8",
          "name": "version",
          "type": "uint8"
        }
      ],
      "name": "Initialized",
      "type": "event"
    },
    {
      "anonymous": false,
      "inputs": [
        {
          "indexed": true,
          "internalType": "contract IEntryPoint",
          "name": "entryPoint",
          "type": "address"
        },
        {
          "indexed": true,
          "internalType": "address",
          "name": "owner",
          "type": "address"
        }
      ],
      "name": "SmartWalletInitialized",
      "type": "event"
    },
    {
      "anonymous": false,
      "inputs": [
        {
          "indexed": true,
          "internalType": "address",
          "name": "implementation",
          "type": "address"
        }
      ],
      "name": "Upgraded",
      "type": "event"
    },
    {
      "anonymous": false,
      "inputs": [
        {
          "indexed": true,
          "internalType": "contract IEntryPoint",
          "name": "entryPoint",
          "type": "address"
        },
        {
          "indexed": true,
          "internalType": "address",
          "name": "owner",
          "type": "address"
        }
      ],
      "name": "WalletInitialized",
      "type": "event"
    },
    {
      "inputs": [],
      "name": "addDeposit",
      "outputs": [],
      "stateMutability": "payable",
      "type": "function"
    },
    {
      "inputs": [],
      "name": "entryPoint",
      "outputs": [
        {
          "internalType": "contract IEntryPoint",
          "name": "",
          "type": "address"
        }
      ],
      "stateMutability": "view",
      "type": "function"
    },
    {
      "inputs": [
        {
          "internalType": "address",
          "name": "dest",
          "type": "address"
        },
        {
          "internalType": "uint256",
          "name": "value",
          "type": "uint256"
        },
        {
          "internalType": "bytes",
          "name": "func",
          "type": "bytes"
        }
      ],
      "name": "execute",
      "outputs": [],
      "stateMutability": "nonpayable",
      "type": "function"
    },
    {
      "inputs": [
        {
          "internalType": "address[]",
          "name": "dest",
          "type": "address[]"
        },
        {
          "internalType": "bytes[]",
          "name": "func",
          "type": "bytes[]"
        }
      ],
      "name": "executeBatch",
      "outputs": [],
      "stateMutability": "nonpayable",
      "type": "function"
    },
    {
      "inputs": [],
      "name": "getDeposit",
      "outputs": [
        {
          "internalType": "uint256",
          "name": "",
          "type": "uint256"
        }
      ],
      "stateMutability": "view",
      "type": "function"
    },
    {
      "inputs": [
        {
          "internalType": "address",
          "name": "anOwner",
          "type": "address"
        }
      ],
      "name": "initialize",
      "outputs": [],
      "stateMutability": "nonpayable",
      "type": "function"
    },
    {
      "inputs": [],
      "name": "nonce",
      "outputs": [
        {
          "internalType": "uint256",
          "name": "",
          "type": "uint256"
        }
      ],
      "stateMutability": "view",
      "type": "function"
    },
    {
      "inputs": [],
      "name": "owner",
      "outputs": [
        {
          "internalType": "address",
          "name": "",
          "type": "address"
        }
      ],
      "stateMutability": "view",
      "type": "function"
    },
    {
      "inputs": [],
      "name": "proxiableUUID",
      "outputs": [
        {
          "internalType": "bytes32",
          "name": "",
          "type": "bytes32"
        }
      ],
      "stateMutability": "view",
      "type": "function"
    },
    {
      "inputs": [
        {
          "internalType": "address",
          "name": "newImplementation",
          "type": "address"
        }
      ],
      "name": "upgradeTo",
      "outputs": [],
      "stateMutability": "nonpayable",
      "type": "function"
    },
    {
      "inputs": [
        {
          "internalType": "address",
          "name": "newImplementation",
          "type": "address"
        },
        {
          "internalType": "bytes",
          "name": "data",
          "type": "bytes"
        }
      ],
      "name": "upgradeToAndCall",
      "outputs": [],
      "stateMutability": "payable",
      "type": "function"
    },
    {
      "inputs": [
        {
          "components": [
            {
              "internalType": "address",
              "name": "sender",
              "type": "address"
            },
            {
              "internalType": "uint256",
              "name": "nonce",
              "type": "uint256"
            },
            {
              "internalType": "bytes",
              "name": "initCode",
              "type": "bytes"
            },
            {
              "internalType": "bytes",
              "name": "callData",
              "type": "bytes"
            },
            {
              "internalType": "uint256",
              "name": "callGasLimit",
              "type": "uint256"
            },
            {
              "internalType": "uint256",
              "name": "verificationGasLimit",
              "type": "uint256"
            },
            {
              "internalType": "uint256",
              "name": "preVerificationGas",
              "type": "uint256"
            },
            {
              "internalType": "uint256",
              "name": "maxFeePerGas",
              "type": "uint256"
            },
            {
              "internalType": "uint256",
              "name": "maxPriorityFeePerGas",
              "type": "uint256"
            },
            {
              "internalType": "bytes",
              "name": "paymasterAndData",
              "type": "bytes"
            },
            {
              "internalType": "bytes",
              "name": "signature",
              "type": "bytes"
            }
          ],
          "internalType": "struct UserOperation",
          "name": "userOp",
          "type": "tuple"
        },
        {
          "internalType": "bytes32",
          "name": "userOpHash",
          "type": "bytes32"
        },
        {
          "internalType": "uint256",
          "name": "missingAccountFunds",
          "type": "uint256"
        }
      ],
      "name": "validateUserOp",
      "outputs": [
        {
          "internalType": "uint256",
          "name": "validationData",
          "type": "uint256"
        }
      ],
      "stateMutability": "nonpayable",
      "type": "function"
    },
    {
      "inputs": [
        {
          "internalType": "address payable",
          "name": "withdrawAddress",
          "type": "address"
        },
        {
          "internalType": "uint256",
          "name": "amount",
          "type": "uint256"
        }
      ],
      "name": "withdrawDepositTo",
      "outputs": [],
      "stateMutability": "nonpayable",
      "type": "function"
    },
    {
      "stateMutability": "payable",
      "type": "receive"
    }
  ],
  "bytecode": {
    "object": "0x60c06040523060805234801561001457600080fd5b5060405161195f38038061195f83398101604081905261003391610044565b6001600160a01b031660a052610074565b60006020828403121561005657600080fd5b81516001600160a01b038116811461006d57600080fd5b9392505050565b60805160a0516118806100df60003960008181610202015281816104a301528181610529015281816107860152818161093101528181610ba80152610e47015260008181610385015281816103c5015281816105ba015281816105fa015261068d01526118806000f3fe6080604052600436106100c65760003560e01c806352d1902d1161007f578063b0d691fe11610059578063b0d691fe146101f3578063b61d27f614610226578063c399ec8814610246578063c4d66de81461025b57600080fd5b806352d1902d146101825780638da5cb5b14610197578063affed0e0146101cf57600080fd5b806318dfb3c7146100d25780633659cfe6146100f45780633a871cdd146101145780634a58db19146101475780634d44560d1461014f5780634f1ef2861461016f57600080fd5b366100cd57005b600080fd5b3480156100de57600080fd5b506100f26100ed366004611396565b61027b565b005b34801561010057600080fd5b506100f261010f366004611417565b61037b565b34801561012057600080fd5b5061013461012f366004611434565b61045a565b6040519081526020015b60405180910390f35b6100f261049f565b34801561015b57600080fd5b506100f261016a366004611488565b61051f565b6100f261017d3660046114ca565b6105b0565b34801561018e57600080fd5b50610134610680565b3480156101a357600080fd5b506001546101b7906001600160a01b031681565b6040516001600160a01b03909116815260200161013e565b3480156101db57600080fd5b506000546201000090046001600160601b0316610134565b3480156101ff57600080fd5b507f00000000000000000000000000000000000000000000000000000000000000006101b7565b34801561023257600080fd5b506100f261024136600461158e565b610733565b34801561025257600080fd5b50610134610782565b34801561026757600080fd5b506100f2610276366004611417565b610814565b610283610926565b8281146102cd5760405162461bcd60e51b815260206004820152601360248201527277726f6e67206172726179206c656e6774687360681b60448201526064015b60405180910390fd5b60005b83811015610374576103628585838181106102ed576102ed611617565b90506020020160208101906103029190611417565b600085858581811061031657610316611617565b9050602002810190610328919061162d565b8080601f0160208091040260200160405190810160405280939291908181526020018383808284376000920191909152506109b592505050565b8061036c8161168a565b9150506102d0565b5050505050565b6001600160a01b037f00000000000000000000000000000000000000000000000000000000000000001630036103c35760405162461bcd60e51b81526004016102c4906116a3565b7f00000000000000000000000000000000000000000000000000000000000000006001600160a01b031661040c600080516020611804833981519152546001600160a01b031690565b6001600160a01b0316146104325760405162461bcd60e51b81526004016102c4906116ef565b61043b81610a25565b6040805160008082526020820190925261045791839190610a2d565b50565b6000610464610b9d565b61046e8484610c15565b905061047d604085018561162d565b905060000361048f5761048f84610cea565b61049882610d83565b9392505050565b60007f00000000000000000000000000000000000000000000000000000000000000006001600160a01b03163460405160006040518083038185875af1925050503d806000811461050c576040519150601f19603f3d011682016040523d82523d6000602084013e610511565b606091505b505090508061045757600080fd5b610527610dd0565b7f000000000000000000000000000000000000000000000000000000000000000060405163040b850f60e31b81526001600160a01b03848116600483015260248201849052919091169063205c287890604401600060405180830381600087803b15801561059457600080fd5b505af11580156105a8573d6000803e3d6000fd5b505050505050565b6001600160a01b037f00000000000000000000000000000000000000000000000000000000000000001630036105f85760405162461bcd60e51b81526004016102c4906116a3565b7f00000000000000000000000000000000000000000000000000000000000000006001600160a01b0316610641600080516020611804833981519152546001600160a01b031690565b6001600160a01b0316146106675760405162461bcd60e51b81526004016102c4906116ef565b61067082610a25565b61067c82826001610a2d565b5050565b6000306001600160a01b037f000000000000000000000000000000000000000000000000000000000000000016146107205760405162461bcd60e51b815260206004820152603860248201527f555550535570677261646561626c653a206d757374206e6f742062652063616c60448201527f6c6564207468726f7567682064656c656761746563616c6c000000000000000060648201526084016102c4565b5060008051602061180483398151915290565b61073b610926565b61077c848484848080601f0160208091040260200160405190810160405280939291908181526020018383808284376000920191909152506109b592505050565b50505050565b60007f00000000000000000000000000000000000000000000000000000000000000006040516370a0823160e01b81523060048201526001600160a01b0391909116906370a0823190602401602060405180830381865afa1580156107eb573d6000803e3d6000fd5b505050506040513d601f19601f8201168201806040525081019061080f919061173b565b905090565b600054610100900460ff16158080156108345750600054600160ff909116105b8061084e5750303b15801561084e575060005460ff166001145b6108b15760405162461bcd60e51b815260206004820152602e60248201527f496e697469616c697a61626c653a20636f6e747261637420697320616c72656160448201526d191e481a5b9a5d1a585b1a5e995960921b60648201526084016102c4565b6000805460ff1916600117905580156108d4576000805461ff0019166101001790555b6108dd82610e21565b801561067c576000805461ff0019169055604051600181527f7f26b83ff96e1f2b6a682f133852f6798a09c465da95921460cefb38474024989060200160405180910390a15050565b336001600160a01b037f000000000000000000000000000000000000000000000000000000000000000016148061096757506001546001600160a01b031633145b6109b35760405162461bcd60e51b815260206004820181905260248201527f6163636f756e743a206e6f74204f776e6572206f7220456e747279506f696e7460448201526064016102c4565b565b600080846001600160a01b031684846040516109d19190611778565b60006040518083038185875af1925050503d8060008114610a0e576040519150601f19603f3d011682016040523d82523d6000602084013e610a13565b606091505b50915091508161037457805160208201fd5b610457610dd0565b7f4910fdfa16fed3260ed0e7147f7cc6da11a60208b5b9406d12a635614ffd91435460ff1615610a6557610a6083610e91565b505050565b826001600160a01b03166352d1902d6040518163ffffffff1660e01b8152600401602060405180830381865afa925050508015610abf575060408051601f3d908101601f19168201909252610abc9181019061173b565b60015b610b225760405162461bcd60e51b815260206004820152602e60248201527f45524331393637557067726164653a206e657720696d706c656d656e7461746960448201526d6f6e206973206e6f74205555505360901b60648201526084016102c4565b6000805160206118048339815191528114610b915760405162461bcd60e51b815260206004820152602960248201527f45524331393637557067726164653a20756e737570706f727465642070726f786044820152681a58589b195555525160ba1b60648201526084016102c4565b50610a60838383610f2d565b336001600160a01b037f000000000000000000000000000000000000000000000000000000000000000016146109b35760405162461bcd60e51b815260206004820152601c60248201527f6163636f756e743a206e6f742066726f6d20456e747279506f696e740000000060448201526064016102c4565b600080610c6f836040517f19457468657265756d205369676e6564204d6573736167653a0a3332000000006020820152603c8101829052600090605c01604051602081830303815290604052805190602001209050919050565b9050610cbf610c8261014086018661162d565b8080601f0160208091040260200160405190810160405280939291908181526020018383808284376000920191909152508593925050610f529050565b6001546001600160a01b03908116911614610cde576001915050610ce4565b60009150505b92915050565b60008054602083013591620100009091046001600160601b0316906002610d1083611794565b91906101000a8154816001600160601b0302191690836001600160601b031602179055506001600160601b0316146104575760405162461bcd60e51b81526020600482015260166024820152756163636f756e743a20696e76616c6964206e6f6e636560501b60448201526064016102c4565b801561045757604051600090339060001990849084818181858888f193505050503d8060008114610374576040519150601f19603f3d011682016040523d82523d6000602084013e610374565b6001546001600160a01b0316331480610de857503330145b6109b35760405162461bcd60e51b815260206004820152600a60248201526937b7363c9037bbb732b960b11b60448201526064016102c4565b600180546001600160a01b0319166001600160a01b0383811691821790925560405190917f000000000000000000000000000000000000000000000000000000000000000016907f44b141d3055ebe7194c3f858e31c5daaa5b428b47fa7642ed2e449ce62e7c9f490600090a350565b6001600160a01b0381163b610efe5760405162461bcd60e51b815260206004820152602d60248201527f455243313936373a206e657720696d706c656d656e746174696f6e206973206e60448201526c1bdd08184818dbdb9d1c9858dd609a1b60648201526084016102c4565b60008051602061180483398151915280546001600160a01b0319166001600160a01b0392909216919091179055565b610f3683610f76565b600082511180610f435750805b15610a605761077c8383610fb6565b6000806000610f618585610fdb565b91509150610f6e81611020565b509392505050565b610f7f81610e91565b6040516001600160a01b038216907fbc7cd75a20ee27fd9adebab32041f755214dbc6bffa90cc0225b39da2e5c2d3b90600090a250565b606061049883836040518060600160405280602781526020016118246027913961116a565b60008082516041036110115760208301516040840151606085015160001a611005878285856111e2565b94509450505050611019565b506000905060025b9250929050565b6000816004811115611034576110346117ba565b0361103c5750565b6001816004811115611050576110506117ba565b0361109d5760405162461bcd60e51b815260206004820152601860248201527f45434453413a20696e76616c6964207369676e6174757265000000000000000060448201526064016102c4565b60028160048111156110b1576110b16117ba565b036110fe5760405162461bcd60e51b815260206004820152601f60248201527f45434453413a20696e76616c6964207369676e6174757265206c656e6774680060448201526064016102c4565b6003816004811115611112576111126117ba565b036104575760405162461bcd60e51b815260206004820152602260248201527f45434453413a20696e76616c6964207369676e6174757265202773272076616c604482015261756560f01b60648201526084016102c4565b6060600080856001600160a01b0316856040516111879190611778565b600060405180830381855af49150503d80600081146111c2576040519150601f19603f3d011682016040523d82523d6000602084013e6111c7565b606091505b50915091506111d8868383876112a6565b9695505050505050565b6000807f7fffffffffffffffffffffffffffffff5d576e7357a4501ddfe92f46681b20a0831115611219575060009050600361129d565b6040805160008082526020820180845289905260ff881692820192909252606081018690526080810185905260019060a0016020604051602081039080840390855afa15801561126d573d6000803e3d6000fd5b5050604051601f1901519150506001600160a01b0381166112965760006001925092505061129d565b9150600090505b94509492505050565b6060831561131557825160000361130e576001600160a01b0385163b61130e5760405162461bcd60e51b815260206004820152601d60248201527f416464726573733a2063616c6c20746f206e6f6e2d636f6e747261637400000060448201526064016102c4565b508161131f565b61131f8383611327565b949350505050565b8151156113375781518083602001fd5b8060405162461bcd60e51b81526004016102c491906117d0565b60008083601f84011261136357600080fd5b50813567ffffffffffffffff81111561137b57600080fd5b6020830191508360208260051b850101111561101957600080fd5b600080600080604085870312156113ac57600080fd5b843567ffffffffffffffff808211156113c457600080fd5b6113d088838901611351565b909650945060208701359150808211156113e957600080fd5b506113f687828801611351565b95989497509550505050565b6001600160a01b038116811461045757600080fd5b60006020828403121561142957600080fd5b813561049881611402565b60008060006060848603121561144957600080fd5b833567ffffffffffffffff81111561146057600080fd5b8401610160818703121561147357600080fd5b95602085013595506040909401359392505050565b6000806040838503121561149b57600080fd5b82356114a681611402565b946020939093013593505050565b634e487b7160e01b600052604160045260246000fd5b600080604083850312156114dd57600080fd5b82356114e881611402565b9150602083013567ffffffffffffffff8082111561150557600080fd5b818501915085601f83011261151957600080fd5b81358181111561152b5761152b6114b4565b604051601f8201601f19908116603f01168101908382118183101715611553576115536114b4565b8160405282815288602084870101111561156c57600080fd5b8260208601602083013760006020848301015280955050505050509250929050565b600080600080606085870312156115a457600080fd5b84356115af81611402565b935060208501359250604085013567ffffffffffffffff808211156115d357600080fd5b818701915087601f8301126115e757600080fd5b8135818111156115f657600080fd5b88602082850101111561160857600080fd5b95989497505060200194505050565b634e487b7160e01b600052603260045260246000fd5b6000808335601e1984360301811261164457600080fd5b83018035915067ffffffffffffffff82111561165f57600080fd5b60200191503681900382131561101957600080fd5b634e487b7160e01b600052601160045260246000fd5b60006001820161169c5761169c611674565b5060010190565b6020808252602c908201527f46756e6374696f6e206d7573742062652063616c6c6564207468726f7567682060408201526b19195b1959d85d1958d85b1b60a21b606082015260800190565b6020808252602c908201527f46756e6374696f6e206d7573742062652063616c6c6564207468726f7567682060408201526b6163746976652070726f787960a01b606082015260800190565b60006020828403121561174d57600080fd5b5051919050565b60005b8381101561176f578181015183820152602001611757565b50506000910152565b6000825161178a818460208701611754565b9190910192915050565b60006001600160601b038083168181036117b0576117b0611674565b6001019392505050565b634e487b7160e01b600052602160045260246000fd5b60208152600082518060208401526117ef816040850160208701611754565b601f01601f1916919091016040019291505056fe360894a13ba1a3210667c828492db98dca3e2076cc3735a920a3ca505d382bbc416464726573733a206c6f772d6c6576656c2064656c65676174652063616c6c206661696c6564a2646970667358221220bc417d9712314c4a021cc0c1d62aa9b4b78f65bfdeb5e1bc05dc4de8642f0fac64736f6c63430008140033",
    "linkReferences": {}
  },
  "methodIdentifiers": {
    "addDeposit()": "4a58db19",
    "entryPoint()": "b0d691fe",
    "execute(address,uint256,bytes)": "b61d27f6",
    "executeBatch(address[],bytes[])": "18dfb3c7",
    "getDeposit()": "c399ec88",
    "initialize(address)": "c4d66de8",
    "nonce()": "affed0e0",
    "owner()": "8da5cb5b",
    "proxiableUUID()": "52d1902d",
    "upgradeTo(address)": "3659cfe6",
    "upgradeToAndCall(address,bytes)": "4f1ef286",
    "validateUserOp((address,uint256,bytes,bytes,uint256,uint256,uint256,uint256,uint256,bytes,bytes),bytes32,uint256)": "3a871cdd",
    "withdrawDepositTo(address,uint256)": "4d44560d"
  },
  "id": 44
}