{
  "abi": [
    {
      "inputs": [
        {
          "internalType": "contract IEntryPoint",
          "name": "anEntryPoint",
          "type": "address"
        }
      ],
      "stateMutability": "nonpayable",
      "type": "constructor"
    },
    {
      "anonymous": false,
      "inputs": [
        {
          "indexed": false,
          "internalType": "address",
          "name": "previousAdmin",
          "type": "address"
        },
        {
          "indexed": false,
          "internalType": "address",
          "name": "newAdmin",
          "type": "address"
        }
      ],
      "name": "AdminChanged",
      "type": "event"
    },
    {
      "anonymous": false,
      "inputs": [
        {
          "indexed": true,
          "internalType": "address",
          "name": "beacon",
          "type": "address"
        }
      ],
      "name": "BeaconUpgraded",
      "type": "event"
    },
    {
      "anonymous": false,
      "inputs": [
        {
          "indexed": false,
          "internalType": "uint8",
          "name": "version",
          "type": "uint8"
        }
      ],
      "name": "Initialized",
      "type": "event"
    },
    {
      "anonymous": false,
      "inputs": [
        {
          "indexed": true,
          "internalType": "contract IEntryPoint",
          "name": "entryPoint",
          "type": "address"
        },
        {
          "indexed": true,
          "internalType": "address",
          "name": "owner",
          "type": "address"
        }
      ],
      "name": "SmartWalletInitialized",
      "type": "event"
    },
    {
      "anonymous": false,
      "inputs": [
        {
          "indexed": true,
          "internalType": "address",
          "name": "implementation",
          "type": "address"
        }
      ],
      "name": "Upgraded",
      "type": "event"
    },
    {
      "anonymous": false,
      "inputs": [
        {
          "indexed": true,
          "internalType": "contract IEntryPoint",
          "name": "entryPoint",
          "type": "address"
        },
        {
          "indexed": true,
          "internalType": "address",
          "name": "owner",
          "type": "address"
        }
      ],
      "name": "WalletInitialized",
      "type": "event"
    },
    {
      "inputs": [],
      "name": "addDeposit",
      "outputs": [],
      "stateMutability": "payable",
      "type": "function"
    },
    {
      "inputs": [],
      "name": "entryPoint",
      "outputs": [
        {
          "internalType": "contract IEntryPoint",
          "name": "",
          "type": "address"
        }
      ],
      "stateMutability": "view",
      "type": "function"
    },
    {
      "inputs": [
        {
          "internalType": "address",
          "name": "dest",
          "type": "address"
        },
        {
          "internalType": "uint256",
          "name": "value",
          "type": "uint256"
        },
        {
          "internalType": "bytes",
          "name": "func",
          "type": "bytes"
        }
      ],
      "name": "execute",
      "outputs": [],
      "stateMutability": "nonpayable",
      "type": "function"
    },
    {
      "inputs": [
        {
          "internalType": "address[]",
          "name": "dest",
          "type": "address[]"
        },
        {
          "internalType": "bytes[]",
          "name": "func",
          "type": "bytes[]"
        }
      ],
      "name": "executeBatch",
      "outputs": [],
      "stateMutability": "nonpayable",
      "type": "function"
    },
    {
      "inputs": [],
      "name": "getDeposit",
      "outputs": [
        {
          "internalType": "uint256",
          "name": "",
          "type": "uint256"
        }
      ],
      "stateMutability": "view",
      "type": "function"
    },
    {
      "inputs": [],
      "name": "getNonce",
      "outputs": [
        {
          "internalType": "uint256",
          "name": "",
          "type": "uint256"
        }
      ],
      "stateMutability": "view",
      "type": "function"
    },
    {
      "inputs": [
        {
          "internalType": "address",
          "name": "anOwner",
          "type": "address"
        }
      ],
      "name": "initialize",
      "outputs": [],
      "stateMutability": "nonpayable",
      "type": "function"
    },
    {
      "inputs": [],
      "name": "owner",
      "outputs": [
        {
          "internalType": "address",
          "name": "",
          "type": "address"
        }
      ],
      "stateMutability": "view",
      "type": "function"
    },
    {
      "inputs": [],
      "name": "proxiableUUID",
      "outputs": [
        {
          "internalType": "bytes32",
          "name": "",
          "type": "bytes32"
        }
      ],
      "stateMutability": "view",
      "type": "function"
    },
    {
      "inputs": [
        {
          "internalType": "address",
          "name": "newImplementation",
          "type": "address"
        }
      ],
      "name": "upgradeTo",
      "outputs": [],
      "stateMutability": "nonpayable",
      "type": "function"
    },
    {
      "inputs": [
        {
          "internalType": "address",
          "name": "newImplementation",
          "type": "address"
        },
        {
          "internalType": "bytes",
          "name": "data",
          "type": "bytes"
        }
      ],
      "name": "upgradeToAndCall",
      "outputs": [],
      "stateMutability": "payable",
      "type": "function"
    },
    {
      "inputs": [
        {
          "components": [
            {
              "internalType": "address",
              "name": "sender",
              "type": "address"
            },
            {
              "internalType": "uint256",
              "name": "nonce",
              "type": "uint256"
            },
            {
              "internalType": "bytes",
              "name": "initCode",
              "type": "bytes"
            },
            {
              "internalType": "bytes",
              "name": "callData",
              "type": "bytes"
            },
            {
              "internalType": "uint256",
              "name": "callGasLimit",
              "type": "uint256"
            },
            {
              "internalType": "uint256",
              "name": "verificationGasLimit",
              "type": "uint256"
            },
            {
              "internalType": "uint256",
              "name": "preVerificationGas",
              "type": "uint256"
            },
            {
              "internalType": "uint256",
              "name": "maxFeePerGas",
              "type": "uint256"
            },
            {
              "internalType": "uint256",
              "name": "maxPriorityFeePerGas",
              "type": "uint256"
            },
            {
              "internalType": "bytes",
              "name": "paymasterAndData",
              "type": "bytes"
            },
            {
              "internalType": "bytes",
              "name": "signature",
              "type": "bytes"
            }
          ],
          "internalType": "struct UserOperation",
          "name": "userOp",
          "type": "tuple"
        },
        {
          "internalType": "bytes32",
          "name": "userOpHash",
          "type": "bytes32"
        },
        {
          "internalType": "uint256",
          "name": "missingAccountFunds",
          "type": "uint256"
        }
      ],
      "name": "validateUserOp",
      "outputs": [
        {
          "internalType": "uint256",
          "name": "validationData",
          "type": "uint256"
        }
      ],
      "stateMutability": "nonpayable",
      "type": "function"
    },
    {
      "inputs": [
        {
          "internalType": "address payable",
          "name": "withdrawAddress",
          "type": "address"
        },
        {
          "internalType": "uint256",
          "name": "amount",
          "type": "uint256"
        }
      ],
      "name": "withdrawDepositTo",
      "outputs": [],
      "stateMutability": "nonpayable",
      "type": "function"
    },
    {
      "stateMutability": "payable",
      "type": "receive"
    }
  ],
  "bytecode": {
    "object": "0x60c06040523060805234801561001457600080fd5b506040516118c63803806118c683398101604081905261003391610044565b6001600160a01b031660a052610074565b60006020828403121561005657600080fd5b81516001600160a01b038116811461006d57600080fd5b9392505050565b60805160a0516117e06100e6600039600081816101de01528181610475015281816104fb015281816107740152818161091e0152818161095801528181610bcf0152610dd5015260008181610376015281816103b60152818161058c015281816105cc015261065f01526117e06000f3fe6080604052600436106100c65760003560e01c806352d1902d1161007f578063b61d27f611610059578063b61d27f614610202578063c399ec8814610222578063c4d66de814610237578063d087d2881461025757600080fd5b806352d1902d146101825780638da5cb5b14610197578063b0d691fe146101cf57600080fd5b806318dfb3c7146100d25780633659cfe6146100f45780633a871cdd146101145780634a58db19146101475780634d44560d1461014f5780634f1ef2861461016f57600080fd5b366100cd57005b600080fd5b3480156100de57600080fd5b506100f26100ed366004611324565b61026c565b005b34801561010057600080fd5b506100f261010f3660046113a5565b61036c565b34801561012057600080fd5b5061013461012f3660046113c2565b61044b565b6040519081526020015b60405180910390f35b6100f2610471565b34801561015b57600080fd5b506100f261016a366004611416565b6104f1565b6100f261017d366004611458565b610582565b34801561018e57600080fd5b50610134610652565b3480156101a357600080fd5b506001546101b7906001600160a01b031681565b6040516001600160a01b03909116815260200161013e565b3480156101db57600080fd5b507f00000000000000000000000000000000000000000000000000000000000000006101b7565b34801561020e57600080fd5b506100f261021d36600461151c565b610705565b34801561022e57600080fd5b50610134610754565b34801561024357600080fd5b506100f26102523660046113a5565b6107e5565b34801561026357600080fd5b506101346108f7565b61027461094d565b8281146102be5760405162461bcd60e51b815260206004820152601360248201527277726f6e67206172726179206c656e6774687360681b60448201526064015b60405180910390fd5b60005b83811015610365576103538585838181106102de576102de6115a5565b90506020020160208101906102f391906113a5565b6000858585818110610307576103076115a5565b905060200281019061031991906115bb565b8080601f0160208091040260200160405190810160405280939291908181526020018383808284376000920191909152506109dc92505050565b8061035d81611602565b9150506102c1565b5050505050565b6001600160a01b037f00000000000000000000000000000000000000000000000000000000000000001630036103b45760405162461bcd60e51b81526004016102b590611629565b7f00000000000000000000000000000000000000000000000000000000000000006001600160a01b03166103fd600080516020611764833981519152546001600160a01b031690565b6001600160a01b0316146104235760405162461bcd60e51b81526004016102b590611675565b61042c81610a4c565b6040805160008082526020820190925261044891839190610a54565b50565b6000610455610bc4565b61045f8484610c3c565b905061046a82610d11565b9392505050565b60007f00000000000000000000000000000000000000000000000000000000000000006001600160a01b03163460405160006040518083038185875af1925050503d80600081146104de576040519150601f19603f3d011682016040523d82523d6000602084013e6104e3565b606091505b505090508061044857600080fd5b6104f9610d5e565b7f000000000000000000000000000000000000000000000000000000000000000060405163040b850f60e31b81526001600160a01b03848116600483015260248201849052919091169063205c287890604401600060405180830381600087803b15801561056657600080fd5b505af115801561057a573d6000803e3d6000fd5b505050505050565b6001600160a01b037f00000000000000000000000000000000000000000000000000000000000000001630036105ca5760405162461bcd60e51b81526004016102b590611629565b7f00000000000000000000000000000000000000000000000000000000000000006001600160a01b0316610613600080516020611764833981519152546001600160a01b031690565b6001600160a01b0316146106395760405162461bcd60e51b81526004016102b590611675565b61064282610a4c565b61064e82826001610a54565b5050565b6000306001600160a01b037f000000000000000000000000000000000000000000000000000000000000000016146106f25760405162461bcd60e51b815260206004820152603860248201527f555550535570677261646561626c653a206d757374206e6f742062652063616c60448201527f6c6564207468726f7567682064656c656761746563616c6c000000000000000060648201526084016102b5565b5060008051602061176483398151915290565b61070d61094d565b61074e848484848080601f0160208091040260200160405190810160405280939291908181526020018383808284376000920191909152506109dc92505050565b50505050565b6040516370a0823160e01b81523060048201526000906001600160a01b037f000000000000000000000000000000000000000000000000000000000000000016906370a08231906024015b602060405180830381865afa1580156107bc573d6000803e3d6000fd5b505050506040513d601f19601f820116820180604052508101906107e091906116c1565b905090565b600054610100900460ff16158080156108055750600054600160ff909116105b8061081f5750303b15801561081f575060005460ff166001145b6108825760405162461bcd60e51b815260206004820152602e60248201527f496e697469616c697a61626c653a20636f6e747261637420697320616c72656160448201526d191e481a5b9a5d1a585b1a5e995960921b60648201526084016102b5565b6000805460ff1916600117905580156108a5576000805461ff0019166101001790555b6108ae82610daf565b801561064e576000805461ff0019169055604051600181527f7f26b83ff96e1f2b6a682f133852f6798a09c465da95921460cefb38474024989060200160405180910390a15050565b604051631aab3f0d60e11b8152306004820152600060248201819052906001600160a01b037f000000000000000000000000000000000000000000000000000000000000000016906335567e1a9060440161079f565b336001600160a01b037f000000000000000000000000000000000000000000000000000000000000000016148061098e57506001546001600160a01b031633145b6109da5760405162461bcd60e51b815260206004820181905260248201527f6163636f756e743a206e6f74204f776e6572206f7220456e747279506f696e7460448201526064016102b5565b565b600080846001600160a01b031684846040516109f891906116fe565b60006040518083038185875af1925050503d8060008114610a35576040519150601f19603f3d011682016040523d82523d6000602084013e610a3a565b606091505b50915091508161036557805160208201fd5b610448610d5e565b7f4910fdfa16fed3260ed0e7147f7cc6da11a60208b5b9406d12a635614ffd91435460ff1615610a8c57610a8783610e1f565b505050565b826001600160a01b03166352d1902d6040518163ffffffff1660e01b8152600401602060405180830381865afa925050508015610ae6575060408051601f3d908101601f19168201909252610ae3918101906116c1565b60015b610b495760405162461bcd60e51b815260206004820152602e60248201527f45524331393637557067726164653a206e657720696d706c656d656e7461746960448201526d6f6e206973206e6f74205555505360901b60648201526084016102b5565b6000805160206117648339815191528114610bb85760405162461bcd60e51b815260206004820152602960248201527f45524331393637557067726164653a20756e737570706f727465642070726f786044820152681a58589b195555525160ba1b60648201526084016102b5565b50610a87838383610ebb565b336001600160a01b037f000000000000000000000000000000000000000000000000000000000000000016146109da5760405162461bcd60e51b815260206004820152601c60248201527f6163636f756e743a206e6f742066726f6d20456e747279506f696e740000000060448201526064016102b5565b600080610c96836040517f19457468657265756d205369676e6564204d6573736167653a0a3332000000006020820152603c8101829052600090605c01604051602081830303815290604052805190602001209050919050565b9050610ce6610ca96101408601866115bb565b8080601f0160208091040260200160405190810160405280939291908181526020018383808284376000920191909152508593925050610ee09050565b6001546001600160a01b03908116911614610d05576001915050610d0b565b60009150505b92915050565b801561044857604051600090339060001990849084818181858888f193505050503d8060008114610365576040519150601f19603f3d011682016040523d82523d6000602084013e610365565b6001546001600160a01b0316331480610d7657503330145b6109da5760405162461bcd60e51b815260206004820152600a60248201526937b7363c9037bbb732b960b11b60448201526064016102b5565b600180546001600160a01b0319166001600160a01b0383811691821790925560405190917f000000000000000000000000000000000000000000000000000000000000000016907f44b141d3055ebe7194c3f858e31c5daaa5b428b47fa7642ed2e449ce62e7c9f490600090a350565b6001600160a01b0381163b610e8c5760405162461bcd60e51b815260206004820152602d60248201527f455243313936373a206e657720696d706c656d656e746174696f6e206973206e60448201526c1bdd08184818dbdb9d1c9858dd609a1b60648201526084016102b5565b60008051602061176483398151915280546001600160a01b0319166001600160a01b0392909216919091179055565b610ec483610f04565b600082511180610ed15750805b15610a875761074e8383610f44565b6000806000610eef8585610f69565b91509150610efc81610fae565b509392505050565b610f0d81610e1f565b6040516001600160a01b038216907fbc7cd75a20ee27fd9adebab32041f755214dbc6bffa90cc0225b39da2e5c2d3b90600090a250565b606061046a8383604051806060016040528060278152602001611784602791396110f8565b6000808251604103610f9f5760208301516040840151606085015160001a610f9387828585611170565b94509450505050610fa7565b506000905060025b9250929050565b6000816004811115610fc257610fc261171a565b03610fca5750565b6001816004811115610fde57610fde61171a565b0361102b5760405162461bcd60e51b815260206004820152601860248201527f45434453413a20696e76616c6964207369676e6174757265000000000000000060448201526064016102b5565b600281600481111561103f5761103f61171a565b0361108c5760405162461bcd60e51b815260206004820152601f60248201527f45434453413a20696e76616c6964207369676e6174757265206c656e6774680060448201526064016102b5565b60038160048111156110a0576110a061171a565b036104485760405162461bcd60e51b815260206004820152602260248201527f45434453413a20696e76616c6964207369676e6174757265202773272076616c604482015261756560f01b60648201526084016102b5565b6060600080856001600160a01b03168560405161111591906116fe565b600060405180830381855af49150503d8060008114611150576040519150601f19603f3d011682016040523d82523d6000602084013e611155565b606091505b509150915061116686838387611234565b9695505050505050565b6000807f7fffffffffffffffffffffffffffffff5d576e7357a4501ddfe92f46681b20a08311156111a7575060009050600361122b565b6040805160008082526020820180845289905260ff881692820192909252606081018690526080810185905260019060a0016020604051602081039080840390855afa1580156111fb573d6000803e3d6000fd5b5050604051601f1901519150506001600160a01b0381166112245760006001925092505061122b565b9150600090505b94509492505050565b606083156112a357825160000361129c576001600160a01b0385163b61129c5760405162461bcd60e51b815260206004820152601d60248201527f416464726573733a2063616c6c20746f206e6f6e2d636f6e747261637400000060448201526064016102b5565b50816112ad565b6112ad83836112b5565b949350505050565b8151156112c55781518083602001fd5b8060405162461bcd60e51b81526004016102b59190611730565b60008083601f8401126112f157600080fd5b50813567ffffffffffffffff81111561130957600080fd5b6020830191508360208260051b8501011115610fa757600080fd5b6000806000806040858703121561133a57600080fd5b843567ffffffffffffffff8082111561135257600080fd5b61135e888389016112df565b9096509450602087013591508082111561137757600080fd5b50611384878288016112df565b95989497509550505050565b6001600160a01b038116811461044857600080fd5b6000602082840312156113b757600080fd5b813561046a81611390565b6000806000606084860312156113d757600080fd5b833567ffffffffffffffff8111156113ee57600080fd5b8401610160818703121561140157600080fd5b95602085013595506040909401359392505050565b6000806040838503121561142957600080fd5b823561143481611390565b946020939093013593505050565b634e487b7160e01b600052604160045260246000fd5b6000806040838503121561146b57600080fd5b823561147681611390565b9150602083013567ffffffffffffffff8082111561149357600080fd5b818501915085601f8301126114a757600080fd5b8135818111156114b9576114b9611442565b604051601f8201601f19908116603f011681019083821181831017156114e1576114e1611442565b816040528281528860208487010111156114fa57600080fd5b8260208601602083013760006020848301015280955050505050509250929050565b6000806000806060858703121561153257600080fd5b843561153d81611390565b935060208501359250604085013567ffffffffffffffff8082111561156157600080fd5b818701915087601f83011261157557600080fd5b81358181111561158457600080fd5b88602082850101111561159657600080fd5b95989497505060200194505050565b634e487b7160e01b600052603260045260246000fd5b6000808335601e198436030181126115d257600080fd5b83018035915067ffffffffffffffff8211156115ed57600080fd5b602001915036819003821315610fa757600080fd5b60006001820161162257634e487b7160e01b600052601160045260246000fd5b5060010190565b6020808252602c908201527f46756e6374696f6e206d7573742062652063616c6c6564207468726f7567682060408201526b19195b1959d85d1958d85b1b60a21b606082015260800190565b6020808252602c908201527f46756e6374696f6e206d7573742062652063616c6c6564207468726f7567682060408201526b6163746976652070726f787960a01b606082015260800190565b6000602082840312156116d357600080fd5b5051919050565b60005b838110156116f55781810151838201526020016116dd565b50506000910152565b600082516117108184602087016116da565b9190910192915050565b634e487b7160e01b600052602160045260246000fd5b602081526000825180602084015261174f8160408501602087016116da565b601f01601f1916919091016040019291505056fe360894a13ba1a3210667c828492db98dca3e2076cc3735a920a3ca505d382bbc416464726573733a206c6f772d6c6576656c2064656c65676174652063616c6c206661696c6564a2646970667358221220fc4cc30e2401931ca8a0906522bc916fc302633970048716943e5ff191e5789364736f6c63430008140033",
    "linkReferences": {}
  },
  "methodIdentifiers": {
    "addDeposit()": "4a58db19",
    "entryPoint()": "b0d691fe",
    "execute(address,uint256,bytes)": "b61d27f6",
    "executeBatch(address[],bytes[])": "18dfb3c7",
    "getDeposit()": "c399ec88",
    "getNonce()": "d087d288",
    "initialize(address)": "c4d66de8",
    "owner()": "8da5cb5b",
    "proxiableUUID()": "52d1902d",
    "upgradeTo(address)": "3659cfe6",
    "upgradeToAndCall(address,bytes)": "4f1ef286",
    "validateUserOp((address,uint256,bytes,bytes,uint256,uint256,uint256,uint256,uint256,bytes,bytes),bytes32,uint256)": "3a871cdd",
    "withdrawDepositTo(address,uint256)": "4d44560d"
  },
  "id": 2
}